{
  "_format": "hh-sol-artifact-1",
  "contractName": "FlowSender",
  "sourceName": "contracts/FlowSender.sol",
  "abi": [
    {
      "inputs": [
        {
          "internalType": "address[]",
          "name": "tokenAddresses",
          "type": "address[]"
        }
      ],
      "stateMutability": "nonpayable",
      "type": "constructor"
    },
    {
      "inputs": [],
      "name": "InvalidTokenAddress",
      "type": "error"
    },
    {
      "anonymous": false,
      "inputs": [
        {
          "indexed": true,
          "internalType": "address",
          "name": "tokenAddress",
          "type": "address"
        },
        {
          "indexed": false,
          "internalType": "int96",
          "name": "flowRate",
          "type": "int96"
        },
        {
          "indexed": true,
          "internalType": "address",
          "name": "receiver",
          "type": "address"
        }
      ],
      "name": "StreamCreated",
      "type": "event"
    },
    {
      "anonymous": false,
      "inputs": [
        {
          "indexed": true,
          "internalType": "address",
          "name": "tokenAddress",
          "type": "address"
        },
        {
          "indexed": true,
          "internalType": "address",
          "name": "receiver",
          "type": "address"
        }
      ],
      "name": "StreamDeleted",
      "type": "event"
    },
    {
      "anonymous": false,
      "inputs": [
        {
          "indexed": true,
          "internalType": "address",
          "name": "tokenAddress",
          "type": "address"
        },
        {
          "indexed": false,
          "internalType": "int96",
          "name": "flowRate",
          "type": "int96"
        },
        {
          "indexed": true,
          "internalType": "address",
          "name": "receiver",
          "type": "address"
        }
      ],
      "name": "StreamUpdated",
      "type": "event"
    },
    {
      "anonymous": false,
      "inputs": [
        {
          "indexed": true,
          "internalType": "address",
          "name": "tokenAddress",
          "type": "address"
        },
        {
          "indexed": false,
          "internalType": "uint256",
          "name": "amount",
          "type": "uint256"
        }
      ],
      "name": "TokenWrapped",
      "type": "event"
    },
    {
      "inputs": [
        {
          "internalType": "address",
          "name": "",
          "type": "address"
        }
      ],
      "name": "accountList",
      "outputs": [
        {
          "internalType": "bool",
          "name": "",
          "type": "bool"
        }
      ],
      "stateMutability": "view",
      "type": "function"
    },
    {
      "inputs": [
        {
          "internalType": "address",
          "name": "tokenAddress",
          "type": "address"
        },
        {
          "internalType": "int96",
          "name": "flowRate",
          "type": "int96"
        },
        {
          "internalType": "address",
          "name": "receiver",
          "type": "address"
        }
      ],
      "name": "createStream",
      "outputs": [],
      "stateMutability": "nonpayable",
      "type": "function"
    },
    {
      "inputs": [
        {
          "internalType": "address",
          "name": "tokenAddress",
          "type": "address"
        },
        {
          "internalType": "address",
          "name": "receiver",
          "type": "address"
        }
      ],
      "name": "deleteStream",
      "outputs": [],
      "stateMutability": "nonpayable",
      "type": "function"
    },
    {
      "inputs": [
        {
          "internalType": "address",
          "name": "tokenAddress",
          "type": "address"
        },
        {
          "internalType": "uint256",
          "name": "amount",
          "type": "uint256"
        }
      ],
      "name": "gainWrapToken",
      "outputs": [],
      "stateMutability": "nonpayable",
      "type": "function"
    },
    {
      "inputs": [
        {
          "internalType": "address",
          "name": "tokenAddress",
          "type": "address"
        },
        {
          "internalType": "address",
          "name": "receiver",
          "type": "address"
        }
      ],
      "name": "readFlowRate",
      "outputs": [
        {
          "internalType": "int96",
          "name": "flowRate",
          "type": "int96"
        }
      ],
      "stateMutability": "view",
      "type": "function"
    },
    {
      "inputs": [
        {
          "internalType": "address",
          "name": "",
          "type": "address"
        }
      ],
      "name": "superTokens",
      "outputs": [
        {
          "internalType": "contract ISuperToken",
          "name": "",
          "type": "address"
        }
      ],
      "stateMutability": "view",
      "type": "function"
    },
    {
      "inputs": [
        {
          "internalType": "address",
          "name": "tokenAddress",
          "type": "address"
        },
        {
          "internalType": "int96",
          "name": "flowRate",
          "type": "int96"
        },
        {
          "internalType": "address",
          "name": "receiver",
          "type": "address"
        }
      ],
      "name": "updateStream",
      "outputs": [],
      "stateMutability": "nonpayable",
      "type": "function"
    }
  ],
  "bytecode": "0x60806040523480156200001157600080fd5b5060405162000fd738038062000fd78339810160408190526200003491620000f7565b60005b8151811015620000bc57818181518110620000565762000056620001c9565b602002602001015160016000848481518110620000775762000077620001c9565b6020908102919091018101516001600160a01b0390811683529082019290925260400160002080546001600160a01b0319169290911691909117905560010162000037565b5050620001df565b634e487b7160e01b600052604160045260246000fd5b80516001600160a01b0381168114620000f257600080fd5b919050565b600060208083850312156200010b57600080fd5b82516001600160401b03808211156200012357600080fd5b818501915085601f8301126200013857600080fd5b8151818111156200014d576200014d620000c4565b8060051b604051601f19603f83011681018181108582111715620001755762000175620000c4565b6040529182528482019250838101850191888311156200019457600080fd5b938501935b82851015620001bd57620001ad85620000da565b8452938501939285019262000199565b98975050505050505050565b634e487b7160e01b600052603260045260246000fd5b610de880620001ef6000396000f3fe608060405234801561001057600080fd5b506004361061007d5760003560e01c8063aa67a53e1161005b578063aa67a53e146100f0578063d1739c7514610103578063d3a07fcd14610116578063d53dab251461014957600080fd5b80633698d1771461008257806364ea1c3d146100975780636c868884146100dd575b600080fd5b610095610090366004610ab0565b61016f565b005b6100c06100a5366004610afb565b6001602052600090815260409020546001600160a01b031681565b6040516001600160a01b0390911681526020015b60405180910390f35b6100956100eb366004610b1f565b61020b565b6100956100fe366004610b4b565b6102e6565b610095610111366004610ab0565b610379565b610139610124366004610afb565b60006020819052908152604090205460ff1681565b60405190151581526020016100d4565b61015c610157366004610b4b565b61040b565b604051600b9190910b81526020016100d4565b6001600160a01b0380841660009081526001602052604090205416806101a857604051630f58058360e11b815260040160405180910390fd5b6101bc6001600160a01b0382168385610462565b50604051600b84900b81526001600160a01b0380841691908616907f5cd1ca4c52466f80ea47d8003dd290a35dd46207d6841f90c3a050c762ae06c0906020015b60405180910390a350505050565b6001600160a01b03808316600090815260016020526040902054168061024457604051630f58058360e11b815260040160405180910390fd5b6040516345977d0360e01b8152600481018390526001600160a01b038216906345977d0390602401600060405180830381600087803b15801561028657600080fd5b505af115801561029a573d6000803e3d6000fd5b50505050826001600160a01b03167f2273a99739c31a37346636a3013c2cedebee7cd5b4c560faded39d298c1dd45c836040516102d991815260200190565b60405180910390a2505050565b6001600160a01b03808316600090815260016020526040902054168061031f57604051630f58058360e11b815260040160405180910390fd5b6103336001600160a01b0382163084610481565b50816001600160a01b0316836001600160a01b03167f732309c7ef763aa1f86535c7e65161ed3bf7a22da9e654bf554ea1178a1aeb0960405160405180910390a3505050565b6001600160a01b0380841660009081526001602052604090205416806103b257604051630f58058360e11b815260040160405180910390fd5b6103c66001600160a01b03821683856104a0565b50604051600b84900b81526001600160a01b0380841691908616907fa92bc119ff2dc5de2d388c587c8077e6ced8fd650dacbd1c69fcc6a0aeea388e906020016101fd565b6001600160a01b038083166000908152600160205260408120549091168061044657604051630f58058360e11b815260040160405180910390fd5b61045a6001600160a01b03821630856104bf565b949350505050565b6040805160008082526020820190925261045a90859085908590610557565b6040805160008082526020820190925261045a90859085908590610683565b6040805160008082526020820190925261045a9085908590859061070f565b6000806104cb8561075d565b604051631cd43d1160e31b81526001600160a01b03888116600483015287811660248301528681166044830152919350908316915063e6a1e88890606401608060405180830381865afa158015610526573d6000803e3d6000fd5b505050506040513d601f19601f8201168201806040525081019061054a9190610b9a565b5090979650505050505050565b6000806000610565876108de565b91509150816001600160a01b03166339255d5b82836001600160a01b03166362fc305e8b8b8b600067ffffffffffffffff8111156105a5576105a5610b84565b6040519080825280601f01601f1916602001820160405280156105cf576020820181803683370190505b506040516024016105e39493929190610c28565b60408051808303601f1901815291815260208201805160e094851b6001600160e01b03909116179052519185901b6001600160e01b031916825261062e939250908990600401610c68565b6000604051808303816000875af115801561064d573d6000803e3d6000fd5b505050506040513d6000823e601f3d908101601f191682016040526106759190810190610c9e565b506001979650505050505050565b6000806000610691876108de565b91509150816001600160a01b03166339255d5b82836001600160a01b031663b4b333c68b8b8b600067ffffffffffffffff8111156106d1576106d1610b84565b6040519080825280601f01601f1916602001820160405280156106fb576020820181803683370190505b506040516024016105e39493929190610d4b565b600080600061071d876108de565b91509150816001600160a01b03166339255d5b82836001600160a01b03166350209a628b8b8b600067ffffffffffffffff8111156105a5576105a5610b84565b7f65599bf746e17a00ea62e3610586992d88101b78eec3cf380706621fb97ea837547fb969d79d88acd02d04ed7ee7d43b949e7daf093d363abcfbbc43dfdfd1ce969a546001600160a01b0381166108ad576001600160a01b03821661082257826001600160a01b03166320bc44256040518163ffffffff1660e01b8152600401602060405180830381865afa1580156107fb573d6000803e3d6000fd5b505050506040513d601f19601f8201168201806040525081019061081f9190610d7f565b91505b604051635b69006f60e11b81527fa9214cc96615e0085d3bb077758db69497dc2dce3b2b1e97bc93c3d18d83efd360048201526001600160a01b0383169063b6d200de90602401602060405180830381865afa158015610886573d6000803e3d6000fd5b505050506040513d601f19601f820116820180604052508101906108aa9190610d7f565b90505b6001600160a01b0382166108c3576108c3610d9c565b6001600160a01b0381166108d9576108d9610d9c565b915091565b7f65599bf746e17a00ea62e3610586992d88101b78eec3cf380706621fb97ea837547fb969d79d88acd02d04ed7ee7d43b949e7daf093d363abcfbbc43dfdfd1ce969a546001600160a01b0381166108ad576001600160a01b0382166109a357826001600160a01b03166320bc44256040518163ffffffff1660e01b8152600401602060405180830381865afa15801561097c573d6000803e3d6000fd5b505050506040513d601f19601f820116820180604052508101906109a09190610d7f565b91505b604051635b69006f60e11b81527fa9214cc96615e0085d3bb077758db69497dc2dce3b2b1e97bc93c3d18d83efd360048201526001600160a01b0383169063b6d200de90602401602060405180830381865afa158015610a07573d6000803e3d6000fd5b505050506040513d601f19601f82011682018060405250810190610a2b9190610d7f565b9050817f65599bf746e17a00ea62e3610586992d88101b78eec3cf380706621fb97ea83755807fb969d79d88acd02d04ed7ee7d43b949e7daf093d363abcfbbc43dfdfd1ce969a556001600160a01b0382166108c3576108c3610d9c565b6001600160a01b0381168114610a9e57600080fd5b50565b80600b0b8114610a9e57600080fd5b600080600060608486031215610ac557600080fd5b8335610ad081610a89565b92506020840135610ae081610aa1565b91506040840135610af081610a89565b809150509250925092565b600060208284031215610b0d57600080fd5b8135610b1881610a89565b9392505050565b60008060408385031215610b3257600080fd5b8235610b3d81610a89565b946020939093013593505050565b60008060408385031215610b5e57600080fd5b8235610b6981610a89565b91506020830135610b7981610a89565b809150509250929050565b634e487b7160e01b600052604160045260246000fd5b60008060008060808587031215610bb057600080fd5b845193506020850151610bc281610aa1565b6040860151606090960151949790965092505050565b60005b83811015610bf3578181015183820152602001610bdb565b50506000910152565b60008151808452610c14816020860160208601610bd8565b601f01601f19169290920160200192915050565b6001600160a01b03858116825284166020820152600b83900b6040820152608060608201819052600090610c5e90830184610bfc565b9695505050505050565b6001600160a01b0384168152606060208201819052600090610c8c90830185610bfc565b8281036040840152610c5e8185610bfc565b600060208284031215610cb057600080fd5b815167ffffffffffffffff80821115610cc857600080fd5b818401915084601f830112610cdc57600080fd5b815181811115610cee57610cee610b84565b604051601f8201601f19908116603f01168101908382118183101715610d1657610d16610b84565b81604052828152876020848701011115610d2f57600080fd5b610d40836020830160208801610bd8565b979650505050505050565b6001600160a01b038581168252848116602083015283166040820152608060608201819052600090610c5e90830184610bfc565b600060208284031215610d9157600080fd5b8151610b1881610a89565b634e487b7160e01b600052600160045260246000fdfea26469706673582212201cfb03d6f9cb08cf853f511d76ec7ce97033c3618f73db93a01e067bd7d9b51264736f6c63430008170033",
  "linkReferences": {},
  "deployedLinkReferences": {}
}