{
  "address": "0x3A387873306f907D34E879eb8b0c7C0033374523",
  "abi": [
    {
      "inputs": [
        {
          "internalType": "string",
          "name": "baseUri",
          "type": "string"
        },
        {
          "internalType": "uint256",
          "name": "category",
          "type": "uint256"
        },
        {
          "internalType": "uint256",
          "name": "freeMintDuration",
          "type": "uint256"
        }
      ],
      "stateMutability": "nonpayable",
      "type": "constructor"
    },
    {
      "inputs": [],
      "name": "CannotMintDuringFreeMintPeriod",
      "type": "error"
    },
    {
      "inputs": [],
      "name": "EthSentDuringFreeMint",
      "type": "error"
    },
    {
      "inputs": [
        {
          "internalType": "uint256",
          "name": "required",
          "type": "uint256"
        }
      ],
      "name": "InsufficientEthForSaleMint",
      "type": "error"
    },
    {
      "anonymous": false,
      "inputs": [
        {
          "indexed": true,
          "internalType": "address",
          "name": "owner",
          "type": "address"
        },
        {
          "indexed": true,
          "internalType": "address",
          "name": "approved",
          "type": "address"
        },
        {
          "indexed": true,
          "internalType": "uint256",
          "name": "tokenId",
          "type": "uint256"
        }
      ],
      "name": "Approval",
      "type": "event"
    },
    {
      "anonymous": false,
      "inputs": [
        {
          "indexed": true,
          "internalType": "address",
          "name": "owner",
          "type": "address"
        },
        {
          "indexed": true,
          "internalType": "address",
          "name": "operator",
          "type": "address"
        },
        {
          "indexed": false,
          "internalType": "bool",
          "name": "approved",
          "type": "bool"
        }
      ],
      "name": "ApprovalForAll",
      "type": "event"
    },
    {
      "anonymous": false,
      "inputs": [
        {
          "indexed": false,
          "internalType": "uint256",
          "name": "_fromTokenId",
          "type": "uint256"
        },
        {
          "indexed": false,
          "internalType": "uint256",
          "name": "_toTokenId",
          "type": "uint256"
        }
      ],
      "name": "BatchMetadataUpdate",
      "type": "event"
    },
    {
      "anonymous": false,
      "inputs": [
        {
          "indexed": false,
          "internalType": "uint256",
          "name": "_tokenId",
          "type": "uint256"
        }
      ],
      "name": "MetadataUpdate",
      "type": "event"
    },
    {
      "anonymous": false,
      "inputs": [
        {
          "indexed": true,
          "internalType": "address",
          "name": "previousOwner",
          "type": "address"
        },
        {
          "indexed": true,
          "internalType": "address",
          "name": "newOwner",
          "type": "address"
        }
      ],
      "name": "OwnershipTransferred",
      "type": "event"
    },
    {
      "anonymous": false,
      "inputs": [
        {
          "indexed": true,
          "internalType": "address",
          "name": "from",
          "type": "address"
        },
        {
          "indexed": true,
          "internalType": "address",
          "name": "to",
          "type": "address"
        },
        {
          "indexed": true,
          "internalType": "uint256",
          "name": "tokenId",
          "type": "uint256"
        }
      ],
      "name": "Transfer",
      "type": "event"
    },
    {
      "inputs": [
        {
          "internalType": "address",
          "name": "to",
          "type": "address"
        },
        {
          "internalType": "uint256",
          "name": "tokenId",
          "type": "uint256"
        }
      ],
      "name": "approve",
      "outputs": [],
      "stateMutability": "nonpayable",
      "type": "function"
    },
    {
      "inputs": [
        {
          "internalType": "address",
          "name": "owner",
          "type": "address"
        }
      ],
      "name": "balanceOf",
      "outputs": [
        {
          "internalType": "uint256",
          "name": "",
          "type": "uint256"
        }
      ],
      "stateMutability": "view",
      "type": "function"
    },
    {
      "inputs": [
        {
          "internalType": "uint256",
          "name": "tokenId",
          "type": "uint256"
        }
      ],
      "name": "burn",
      "outputs": [],
      "stateMutability": "nonpayable",
      "type": "function"
    },
    {
      "inputs": [],
      "name": "freeMintEndTime",
      "outputs": [
        {
          "internalType": "uint256",
          "name": "",
          "type": "uint256"
        }
      ],
      "stateMutability": "view",
      "type": "function"
    },
    {
      "inputs": [
        {
          "internalType": "uint256",
          "name": "tokenId",
          "type": "uint256"
        }
      ],
      "name": "getApproved",
      "outputs": [
        {
          "internalType": "address",
          "name": "",
          "type": "address"
        }
      ],
      "stateMutability": "view",
      "type": "function"
    },
    {
      "inputs": [
        {
          "internalType": "address",
          "name": "owner",
          "type": "address"
        },
        {
          "internalType": "address",
          "name": "operator",
          "type": "address"
        }
      ],
      "name": "isApprovedForAll",
      "outputs": [
        {
          "internalType": "bool",
          "name": "",
          "type": "bool"
        }
      ],
      "stateMutability": "view",
      "type": "function"
    },
    {
      "inputs": [],
      "name": "name",
      "outputs": [
        {
          "internalType": "string",
          "name": "",
          "type": "string"
        }
      ],
      "stateMutability": "view",
      "type": "function"
    },
    {
      "inputs": [],
      "name": "owner",
      "outputs": [
        {
          "internalType": "address",
          "name": "",
          "type": "address"
        }
      ],
      "stateMutability": "view",
      "type": "function"
    },
    {
      "inputs": [
        {
          "internalType": "uint256",
          "name": "tokenId",
          "type": "uint256"
        }
      ],
      "name": "ownerOf",
      "outputs": [
        {
          "internalType": "address",
          "name": "",
          "type": "address"
        }
      ],
      "stateMutability": "view",
      "type": "function"
    },
    {
      "inputs": [],
      "name": "renounceOwnership",
      "outputs": [],
      "stateMutability": "nonpayable",
      "type": "function"
    },
    {
      "inputs": [],
      "name": "safeMint",
      "outputs": [],
      "stateMutability": "payable",
      "type": "function"
    },
    {
      "inputs": [
        {
          "internalType": "address",
          "name": "from",
          "type": "address"
        },
        {
          "internalType": "address",
          "name": "to",
          "type": "address"
        },
        {
          "internalType": "uint256",
          "name": "tokenId",
          "type": "uint256"
        }
      ],
      "name": "safeTransferFrom",
      "outputs": [],
      "stateMutability": "nonpayable",
      "type": "function"
    },
    {
      "inputs": [
        {
          "internalType": "address",
          "name": "from",
          "type": "address"
        },
        {
          "internalType": "address",
          "name": "to",
          "type": "address"
        },
        {
          "internalType": "uint256",
          "name": "tokenId",
          "type": "uint256"
        },
        {
          "internalType": "bytes",
          "name": "data",
          "type": "bytes"
        }
      ],
      "name": "safeTransferFrom",
      "outputs": [],
      "stateMutability": "nonpayable",
      "type": "function"
    },
    {
      "inputs": [
        {
          "internalType": "address",
          "name": "operator",
          "type": "address"
        },
        {
          "internalType": "bool",
          "name": "approved",
          "type": "bool"
        }
      ],
      "name": "setApprovalForAll",
      "outputs": [],
      "stateMutability": "nonpayable",
      "type": "function"
    },
    {
      "inputs": [
        {
          "internalType": "string",
          "name": "baseUri",
          "type": "string"
        }
      ],
      "name": "setBaseUri",
      "outputs": [],
      "stateMutability": "nonpayable",
      "type": "function"
    },
    {
      "inputs": [
        {
          "internalType": "bytes4",
          "name": "interfaceId",
          "type": "bytes4"
        }
      ],
      "name": "supportsInterface",
      "outputs": [
        {
          "internalType": "bool",
          "name": "",
          "type": "bool"
        }
      ],
      "stateMutability": "view",
      "type": "function"
    },
    {
      "inputs": [],
      "name": "symbol",
      "outputs": [
        {
          "internalType": "string",
          "name": "",
          "type": "string"
        }
      ],
      "stateMutability": "view",
      "type": "function"
    },
    {
      "inputs": [
        {
          "internalType": "uint256",
          "name": "tokenId",
          "type": "uint256"
        }
      ],
      "name": "tokenURI",
      "outputs": [
        {
          "internalType": "string",
          "name": "",
          "type": "string"
        }
      ],
      "stateMutability": "view",
      "type": "function"
    },
    {
      "inputs": [],
      "name": "totalSupply",
      "outputs": [
        {
          "internalType": "uint256",
          "name": "",
          "type": "uint256"
        }
      ],
      "stateMutability": "view",
      "type": "function"
    },
    {
      "inputs": [
        {
          "internalType": "address",
          "name": "from",
          "type": "address"
        },
        {
          "internalType": "address",
          "name": "to",
          "type": "address"
        },
        {
          "internalType": "uint256",
          "name": "tokenId",
          "type": "uint256"
        }
      ],
      "name": "transferFrom",
      "outputs": [],
      "stateMutability": "nonpayable",
      "type": "function"
    },
    {
      "inputs": [
        {
          "internalType": "address",
          "name": "newOwner",
          "type": "address"
        }
      ],
      "name": "transferOwnership",
      "outputs": [],
      "stateMutability": "nonpayable",
      "type": "function"
    }
  ],
  "transactionHash": "0xc06f73450ad51c97b2a56248703af77d6d5556e913e03bf130f95d843f011029",
  "args": [
    "https://res.cloudinary.com/dplp5wtzk/image/upload/v1715440385/token-monster/monster_",
    9,
    2426615
  ],
  "numDeployments": 1,
  "solcInputHash": "bc9ba3ac0004c992d445cdabd7c8c405",
  "bytecode": "0x60806040523480156200001157600080fd5b506040516200234d3803806200234d83398101604081905262000034916200014b565b6040518060400160405280600c81526020016b2a37b5b2b726b7b739ba32b960a11b81525060405180604001604052806003815260200162544b4d60e81b8152508160009081620000869190620002c3565b506001620000958282620002c3565b505050620000b2620000ac620000df60201b60201c565b620000e3565b600a620000c08482620002c3565b506009829055620000d281426200038f565b600b5550620003b7915050565b3390565b600780546001600160a01b038381166001600160a01b0319831681179093556040519116919082907f8be0079c531659141344cd1fd0a4f28419497f9722a3daafe3b4186f6b6457e090600090a35050565b634e487b7160e01b600052604160045260246000fd5b6000806000606084860312156200016157600080fd5b83516001600160401b03808211156200017957600080fd5b818601915086601f8301126200018e57600080fd5b815181811115620001a357620001a362000135565b604051601f8201601f19908116603f01168101908382118183101715620001ce57620001ce62000135565b81604052828152602093508984848701011115620001eb57600080fd5b600091505b828210156200020f5784820184015181830185015290830190620001f0565b600092810184019290925250908601516040909601519097959650949350505050565b600181811c908216806200024757607f821691505b6020821081036200026857634e487b7160e01b600052602260045260246000fd5b50919050565b601f821115620002be576000816000526020600020601f850160051c81016020861015620002995750805b601f850160051c820191505b81811015620002ba57828155600101620002a5565b5050505b505050565b81516001600160401b03811115620002df57620002df62000135565b620002f781620002f0845462000232565b846200026e565b602080601f8311600181146200032f5760008415620003165750858301515b600019600386901b1c1916600185901b178555620002ba565b600085815260208120601f198616915b8281101562000360578886015182559484019460019091019084016200033f565b50858210156200037f5787850151600019600388901b60f8161c191681555b5050505050600190811b01905550565b80820180821115620003b157634e487b7160e01b600052601160045260246000fd5b92915050565b611f8680620003c76000396000f3fe60806040526004361061012a5760003560e01c80636871ee40116100ab578063a0bcfc7f1161006f578063a0bcfc7f14610305578063a22cb46514610325578063b88d4fde14610345578063c87b56dd14610365578063e985e9c514610385578063f2fde38b146103a557600080fd5b80636871ee401461029557806370a082311461029d578063715018a6146102bd5780638da5cb5b146102d257806395d89b41146102f057600080fd5b806323b872dd116100f257806323b872dd146101ff57806342842e0e1461021f57806342966c681461023f5780634a90604c1461025f5780636352211e1461027557600080fd5b806301ffc9a71461012f57806306fdde0314610164578063081812fc14610186578063095ea7b3146101be57806318160ddd146101e0575b600080fd5b34801561013b57600080fd5b5061014f61014a366004611752565b6103c5565b60405190151581526020015b60405180910390f35b34801561017057600080fd5b506101796103d6565b60405161015b91906117bf565b34801561019257600080fd5b506101a66101a13660046117d2565b610468565b6040516001600160a01b03909116815260200161015b565b3480156101ca57600080fd5b506101de6101d9366004611807565b61048f565b005b3480156101ec57600080fd5b506008545b60405190815260200161015b565b34801561020b57600080fd5b506101de61021a366004611831565b6105a9565b34801561022b57600080fd5b506101de61023a366004611831565b6105db565b34801561024b57600080fd5b506101de61025a3660046117d2565b6105f6565b34801561026b57600080fd5b506101f1600b5481565b34801561028157600080fd5b506101a66102903660046117d2565b610627565b6101de610687565b3480156102a957600080fd5b506101f16102b836600461186d565b6107b7565b3480156102c957600080fd5b506101de61083d565b3480156102de57600080fd5b506007546001600160a01b03166101a6565b3480156102fc57600080fd5b50610179610851565b34801561031157600080fd5b506101de610320366004611914565b610860565b34801561033157600080fd5b506101de61034036600461195d565b610878565b34801561035157600080fd5b506101de610360366004611999565b610883565b34801561037157600080fd5b506101796103803660046117d2565b6108bb565b34801561039157600080fd5b5061014f6103a0366004611a15565b6108c6565b3480156103b157600080fd5b506101de6103c036600461186d565b6108f4565b60006103d08261096a565b92915050565b6060600080546103e590611a48565b80601f016020809104026020016040519081016040528092919081815260200182805461041190611a48565b801561045e5780601f106104335761010080835404028352916020019161045e565b820191906000526020600020905b81548152906001019060200180831161044157829003601f168201915b5050505050905090565b60006104738261098f565b506000908152600460205260409020546001600160a01b031690565b600061049a82610627565b9050806001600160a01b0316836001600160a01b03160361050c5760405162461bcd60e51b815260206004820152602160248201527f4552433732313a20617070726f76616c20746f2063757272656e74206f776e656044820152603960f91b60648201526084015b60405180910390fd5b336001600160a01b0382161480610528575061052881336108c6565b61059a5760405162461bcd60e51b815260206004820152603d60248201527f4552433732313a20617070726f76652063616c6c6572206973206e6f7420746f60448201527f6b656e206f776e6572206f7220617070726f76656420666f7220616c6c0000006064820152608401610503565b6105a483836109ee565b505050565b6105b4335b82610a5c565b6105d05760405162461bcd60e51b815260040161050390611a82565b6105a4838383610abb565b6105a483838360405180602001604052806000815250610883565b6105ff336105ae565b61061b5760405162461bcd60e51b815260040161050390611a82565b61062481610c1f565b50565b6000818152600260205260408120546001600160a01b0316806103d05760405162461bcd60e51b8152602060048201526018602482015277115490cdcc8c4e881a5b9d985b1a59081d1bdad95b88125160421b6044820152606401610503565b600b5442111580156106a15750600061069f336107b7565b115b156106bf576040516303e6d65b60e01b815260040160405180910390fd5b600b5442116106ec5734156106e7576040516306f3ec0960e01b815260040160405180910390fd5b61071a565b662386f26fc100003481111561071857604051637423232160e01b815260048101829052602401610503565b505b600880546000918261072b83611ae5565b9190505590506000600954826107419190611b14565b9050600061078261075184610c31565b600a61075c85610c31565b60405160200161076e93929190611b44565b604051602081830303815290604052610cc4565b6040516020016107929190611c5d565b60405160208183030381529060405290506107ad3384610e24565b6105a48382610e3e565b60006001600160a01b0382166108215760405162461bcd60e51b815260206004820152602960248201527f4552433732313a2061646472657373207a65726f206973206e6f7420612076616044820152683634b21037bbb732b960b91b6064820152608401610503565b506001600160a01b031660009081526003602052604090205490565b610845610f09565b61084f6000610f63565b565b6060600180546103e590611a48565b610868610f09565b600a6108748282611cf2565b5050565b610874338383610fb5565b61088d3383610a5c565b6108a95760405162461bcd60e51b815260040161050390611a82565b6108b584848484611083565b50505050565b60606103d0826110b6565b6001600160a01b03918216600090815260056020908152604080832093909416825291909152205460ff1690565b6108fc610f09565b6001600160a01b0381166109615760405162461bcd60e51b815260206004820152602660248201527f4f776e61626c653a206e6577206f776e657220697320746865207a65726f206160448201526564647265737360d01b6064820152608401610503565b61062481610f63565b60006001600160e01b03198216632483248360e11b14806103d057506103d0826111be565b6000818152600260205260409020546001600160a01b03166106245760405162461bcd60e51b8152602060048201526018602482015277115490cdcc8c4e881a5b9d985b1a59081d1bdad95b88125160421b6044820152606401610503565b600081815260046020526040902080546001600160a01b0319166001600160a01b0384169081179091558190610a2382610627565b6001600160a01b03167f8c5be1e5ebec7d5bd14f71427d1e84f3dd0314c0f7b2291e5b200ac8c7c3b92560405160405180910390a45050565b600080610a6883610627565b9050806001600160a01b0316846001600160a01b03161480610a8f5750610a8f81856108c6565b80610ab35750836001600160a01b0316610aa884610468565b6001600160a01b0316145b949350505050565b826001600160a01b0316610ace82610627565b6001600160a01b031614610af45760405162461bcd60e51b815260040161050390611db2565b6001600160a01b038216610b565760405162461bcd60e51b8152602060048201526024808201527f4552433732313a207472616e7366657220746f20746865207a65726f206164646044820152637265737360e01b6064820152608401610503565b826001600160a01b0316610b6982610627565b6001600160a01b031614610b8f5760405162461bcd60e51b815260040161050390611db2565b600081815260046020908152604080832080546001600160a01b03199081169091556001600160a01b0387811680865260038552838620805460001901905590871680865283862080546001019055868652600290945282852080549092168417909155905184937fddf252ad1be2c89b69c2b068fc378daa952ba7f163c4a11628f55a4df523b3ef91a4505050565b610c288161120e565b6106248161120e565b60606000610c3e8361124e565b600101905060008167ffffffffffffffff811115610c5e57610c5e611888565b6040519080825280601f01601f191660200182016040528015610c88576020820181803683370190505b5090508181016020015b600019016f181899199a1a9b1b9c1cb0b131b232b360811b600a86061a8153600a8504945084610c9257509392505050565b60608151600003610ce357505060408051602081019091526000815290565b6000604051806060016040528060408152602001611f116040913990506000600384516002610d129190611df7565b610d1c9190611e0a565b610d27906004611e1e565b67ffffffffffffffff811115610d3f57610d3f611888565b6040519080825280601f01601f191660200182016040528015610d69576020820181803683370190505b50905060018201602082018586518701602081018051600082525b82841015610ddf576003840193508351603f8160121c168701518653600186019550603f81600c1c168701518653600186019550603f8160061c168701518653600186019550603f8116870151865350600185019450610d84565b9052505085516003900660018114610dfe5760028114610e1157610e19565b603d6001830353603d6002830353610e19565b603d60018303535b509195945050505050565b610874828260405180602001604052806000815250611326565b6000828152600260205260409020546001600160a01b0316610eb95760405162461bcd60e51b815260206004820152602e60248201527f45524337323155524953746f726167653a2055524920736574206f66206e6f6e60448201526d32bc34b9ba32b73a103a37b5b2b760911b6064820152608401610503565b6000828152600660205260409020610ed18282611cf2565b506040518281527ff8e1a15aba9398e019f0b49df1a4fde98ee17ae345cb5f6b5e2c27f5033e8ce79060200160405180910390a15050565b6007546001600160a01b0316331461084f5760405162461bcd60e51b815260206004820181905260248201527f4f776e61626c653a2063616c6c6572206973206e6f7420746865206f776e65726044820152606401610503565b600780546001600160a01b038381166001600160a01b0319831681179093556040519116919082907f8be0079c531659141344cd1fd0a4f28419497f9722a3daafe3b4186f6b6457e090600090a35050565b816001600160a01b0316836001600160a01b0316036110165760405162461bcd60e51b815260206004820152601960248201527f4552433732313a20617070726f766520746f2063616c6c6572000000000000006044820152606401610503565b6001600160a01b03838116600081815260056020908152604080832094871680845294825291829020805460ff191686151590811790915591519182527f17307eab39ab6107e8899845ad3d59bd9653f200f220920489ca2b5937696c31910160405180910390a3505050565b61108e848484610abb565b61109a84848484611359565b6108b55760405162461bcd60e51b815260040161050390611e35565b60606110c18261098f565b600082815260066020526040812080546110da90611a48565b80601f016020809104026020016040519081016040528092919081815260200182805461110690611a48565b80156111535780601f1061112857610100808354040283529160200191611153565b820191906000526020600020905b81548152906001019060200180831161113657829003601f168201915b50505050509050600061117160408051602081019091526000815290565b90508051600003611183575092915050565b8151156111b557808260405160200161119d929190611e87565b60405160208183030381529060405292505050919050565b610ab38461145a565b60006001600160e01b031982166380ac58cd60e01b14806111ef57506001600160e01b03198216635b5e139f60e01b145b806103d057506301ffc9a760e01b6001600160e01b03198316146103d0565b611217816114ce565b6000818152600660205260409020805461123090611a48565b159050610624576000818152600660205260408120610624916116ee565b60008072184f03e93ff9f4daa797ed6e38ed64bf6a1f0160401b831061128d5772184f03e93ff9f4daa797ed6e38ed64bf6a1f0160401b830492506040015b6d04ee2d6d415b85acef810000000083106112b9576d04ee2d6d415b85acef8100000000830492506020015b662386f26fc1000083106112d757662386f26fc10000830492506010015b6305f5e10083106112ef576305f5e100830492506008015b612710831061130357612710830492506004015b60648310611315576064830492506002015b600a83106103d05760010192915050565b6113308383611563565b61133d6000848484611359565b6105a45760405162461bcd60e51b815260040161050390611e35565b60006001600160a01b0384163b1561144f57604051630a85bd0160e11b81526001600160a01b0385169063150b7a029061139d903390899088908890600401611eb6565b6020604051808303816000875af19250505080156113d8575060408051601f3d908101601f191682019092526113d591810190611ef3565b60015b611435573d808015611406576040519150601f19603f3d011682016040523d82523d6000602084013e61140b565b606091505b50805160000361142d5760405162461bcd60e51b815260040161050390611e35565b805181602001fd5b6001600160e01b031916630a85bd0160e11b149050610ab3565b506001949350505050565b60606114658261098f565b600061147c60408051602081019091526000815290565b9050600081511161149c57604051806020016040528060008152506114c7565b806114a684610c31565b6040516020016114b7929190611e87565b6040516020818303038152906040525b9392505050565b60006114d982610627565b90506114e482610627565b600083815260046020908152604080832080546001600160a01b03199081169091556001600160a01b0385168085526003845282852080546000190190558785526002909352818420805490911690555192935084927fddf252ad1be2c89b69c2b068fc378daa952ba7f163c4a11628f55a4df523b3ef908390a45050565b6001600160a01b0382166115b95760405162461bcd60e51b815260206004820181905260248201527f4552433732313a206d696e7420746f20746865207a65726f20616464726573736044820152606401610503565b6000818152600260205260409020546001600160a01b03161561161e5760405162461bcd60e51b815260206004820152601c60248201527f4552433732313a20746f6b656e20616c7265616479206d696e746564000000006044820152606401610503565b6000818152600260205260409020546001600160a01b0316156116835760405162461bcd60e51b815260206004820152601c60248201527f4552433732313a20746f6b656e20616c7265616479206d696e746564000000006044820152606401610503565b6001600160a01b038216600081815260036020908152604080832080546001019055848352600290915280822080546001600160a01b0319168417905551839291907fddf252ad1be2c89b69c2b068fc378daa952ba7f163c4a11628f55a4df523b3ef908290a45050565b5080546116fa90611a48565b6000825580601f1061170a575050565b601f01602090049060005260206000209081019061062491905b808211156117385760008155600101611724565b5090565b6001600160e01b03198116811461062457600080fd5b60006020828403121561176457600080fd5b81356114c78161173c565b60005b8381101561178a578181015183820152602001611772565b50506000910152565b600081518084526117ab81602086016020860161176f565b601f01601f19169290920160200192915050565b6020815260006114c76020830184611793565b6000602082840312156117e457600080fd5b5035919050565b80356001600160a01b038116811461180257600080fd5b919050565b6000806040838503121561181a57600080fd5b611823836117eb565b946020939093013593505050565b60008060006060848603121561184657600080fd5b61184f846117eb565b925061185d602085016117eb565b9150604084013590509250925092565b60006020828403121561187f57600080fd5b6114c7826117eb565b634e487b7160e01b600052604160045260246000fd5b600067ffffffffffffffff808411156118b9576118b9611888565b604051601f8501601f19908116603f011681019082821181831017156118e1576118e1611888565b816040528093508581528686860111156118fa57600080fd5b858560208301376000602087830101525050509392505050565b60006020828403121561192657600080fd5b813567ffffffffffffffff81111561193d57600080fd5b8201601f8101841361194e57600080fd5b610ab38482356020840161189e565b6000806040838503121561197057600080fd5b611979836117eb565b91506020830135801515811461198e57600080fd5b809150509250929050565b600080600080608085870312156119af57600080fd5b6119b8856117eb565b93506119c6602086016117eb565b925060408501359150606085013567ffffffffffffffff8111156119e957600080fd5b8501601f810187136119fa57600080fd5b611a098782356020840161189e565b91505092959194509250565b60008060408385031215611a2857600080fd5b611a31836117eb565b9150611a3f602084016117eb565b90509250929050565b600181811c90821680611a5c57607f821691505b602082108103611a7c57634e487b7160e01b600052602260045260246000fd5b50919050565b6020808252602d908201527f4552433732313a2063616c6c6572206973206e6f7420746f6b656e206f776e6560408201526c1c881bdc88185c1c1c9bdd9959609a1b606082015260800190565b634e487b7160e01b600052601160045260246000fd5b600060018201611af757611af7611acf565b5060010190565b634e487b7160e01b600052601260045260246000fd5b600082611b2357611b23611afe565b500690565b60008151611b3a81856020860161176f565b9290920192915050565b717b226e616d65223a20224661726d6f6e202360701b815283516000906020611b738260128601838a0161176f565b7f222c20226465736372697074696f6e223a20224661726d6f6e204e4654222c20601292850192830152691134b6b0b3b2911d101160b11b60328301528554603c90600090611bc181611a48565b60018281168015611bd95760018114611bf457611c26565b60ff198416603c890152603c83151584028901019450611c26565b8b600052602060002060005b84811015611c1b5781548a8201890152908301908801611c00565b5050603c8389010194505b50505050611c50611c378289611b28565b6c5f6661726d6f6e2e706e67227d60981b8152600d0190565b9998505050505050505050565b7f646174613a6170706c69636174696f6e2f6a736f6e3b6261736536342c000000815260008251611c9581601d85016020870161176f565b91909101601d0192915050565b601f8211156105a4576000816000526020600020601f850160051c81016020861015611ccb5750805b601f850160051c820191505b81811015611cea57828155600101611cd7565b505050505050565b815167ffffffffffffffff811115611d0c57611d0c611888565b611d2081611d1a8454611a48565b84611ca2565b602080601f831160018114611d555760008415611d3d5750858301515b600019600386901b1c1916600185901b178555611cea565b600085815260208120601f198616915b82811015611d8457888601518255948401946001909101908401611d65565b5085821015611da25787850151600019600388901b60f8161c191681555b5050505050600190811b01905550565b60208082526025908201527f4552433732313a207472616e736665722066726f6d20696e636f72726563742060408201526437bbb732b960d91b606082015260800190565b808201808211156103d0576103d0611acf565b600082611e1957611e19611afe565b500490565b80820281158282048414176103d0576103d0611acf565b60208082526032908201527f4552433732313a207472616e7366657220746f206e6f6e20455243373231526560408201527131b2b4bb32b91034b6b83632b6b2b73a32b960711b606082015260800190565b60008351611e9981846020880161176f565b835190830190611ead81836020880161176f565b01949350505050565b6001600160a01b0385811682528416602082015260408101839052608060608201819052600090611ee990830184611793565b9695505050505050565b600060208284031215611f0557600080fd5b81516114c78161173c56fe4142434445464748494a4b4c4d4e4f505152535455565758595a6162636465666768696a6b6c6d6e6f707172737475767778797a303132333435363738392b2fa264697066735822122065a085f68ccb2bdc99d734b18da051116d854408478c504e045f2b248e786cd364736f6c63430008170033",
  "devdoc": {
    "events": {
      "Approval(address,address,uint256)": {
        "details": "Emitted when `owner` enables `approved` to manage the `tokenId` token."
      },
      "ApprovalForAll(address,address,bool)": {
        "details": "Emitted when `owner` enables or disables (`approved`) `operator` to manage all of its assets."
      },
      "BatchMetadataUpdate(uint256,uint256)": {
        "details": "This event emits when the metadata of a range of tokens is changed. So that the third-party platforms such as NFT market could timely update the images and related attributes of the NFTs."
      },
      "MetadataUpdate(uint256)": {
        "details": "This event emits when the metadata of a token is changed. So that the third-party platforms such as NFT market could timely update the images and related attributes of the NFT."
      },
      "Transfer(address,address,uint256)": {
        "details": "Emitted when `tokenId` token is transferred from `from` to `to`."
      }
    },
    "kind": "dev",
    "methods": {
      "approve(address,uint256)": {
        "details": "See {IERC721-approve}."
      },
      "balanceOf(address)": {
        "details": "See {IERC721-balanceOf}."
      },
      "burn(uint256)": {
        "details": "Burns `tokenId`. See {ERC721-_burn}. Requirements: - The caller must own `tokenId` or be an approved operator."
      },
      "getApproved(uint256)": {
        "details": "See {IERC721-getApproved}."
      },
      "isApprovedForAll(address,address)": {
        "details": "See {IERC721-isApprovedForAll}."
      },
      "name()": {
        "details": "See {IERC721Metadata-name}."
      },
      "owner()": {
        "details": "Returns the address of the current owner."
      },
      "ownerOf(uint256)": {
        "details": "See {IERC721-ownerOf}."
      },
      "renounceOwnership()": {
        "details": "Leaves the contract without owner. It will not be possible to call `onlyOwner` functions. Can only be called by the current owner. NOTE: Renouncing ownership will leave the contract without an owner, thereby disabling any functionality that is only available to the owner."
      },
      "safeMint()": {
        "details": "Mint a new token and set the tokenURI to the baseUriThe tokenURI is a base64 encoded string of the JSON metadataThe JSON metadata is a string of the following format:\"{'name': 'Profile Meme NFT #', 'description': 'Profile Meme NFT', 'image': ''}\"The image is the baseUri followed by the farmonCategoryThe farmonCategory is the tokenId modulo the categoryThe tokenId is incremented for each new token"
      },
      "safeTransferFrom(address,address,uint256)": {
        "details": "See {IERC721-safeTransferFrom}."
      },
      "safeTransferFrom(address,address,uint256,bytes)": {
        "details": "See {IERC721-safeTransferFrom}."
      },
      "setApprovalForAll(address,bool)": {
        "details": "See {IERC721-setApprovalForAll}."
      },
      "setBaseUri(string)": {
        "details": "The base URI is the URI for the token imageThis is used to set the base URI for the token imageThis is used to set the base URI for the token image",
        "params": {
          "baseUri": "The base URI for the token image"
        }
      },
      "supportsInterface(bytes4)": {
        "details": "This is used to check if the contract supports the interface",
        "params": {
          "interfaceId": "The interfaceId to check"
        },
        "returns": {
          "_0": "True if the contract supports the interface, False otherwise"
        }
      },
      "symbol()": {
        "details": "See {IERC721Metadata-symbol}."
      },
      "tokenURI(uint256)": {
        "details": "This is used to get the token URI for the token",
        "params": {
          "tokenId": "The tokenId of the token"
        },
        "returns": {
          "_0": "The token URI for the token"
        }
      },
      "transferFrom(address,address,uint256)": {
        "details": "See {IERC721-transferFrom}."
      },
      "transferOwnership(address)": {
        "details": "Transfers ownership of the contract to a new account (`newOwner`). Can only be called by the current owner."
      }
    },
    "version": 1
  },
  "userdoc": {
    "kind": "user",
    "methods": {
      "safeMint()": {
        "notice": "Mint a new token"
      },
      "setBaseUri(string)": {
        "notice": "Set the base URI for the token"
      },
      "supportsInterface(bytes4)": {
        "notice": "Supports the interface"
      },
      "tokenURI(uint256)": {
        "notice": "Get the token URI for the token"
      },
      "totalSupply()": {
        "notice": "Get the total supply"
      }
    },
    "version": 1
  },
  "storageLayout": {
    "storage": [
      {
        "astId": 166,
        "contract": "contracts/TokenMonster.sol:TokenMonster",
        "label": "_name",
        "offset": 0,
        "slot": "0",
        "type": "t_string_storage"
      },
      {
        "astId": 168,
        "contract": "contracts/TokenMonster.sol:TokenMonster",
        "label": "_symbol",
        "offset": 0,
        "slot": "1",
        "type": "t_string_storage"
      },
      {
        "astId": 172,
        "contract": "contracts/TokenMonster.sol:TokenMonster",
        "label": "_owners",
        "offset": 0,
        "slot": "2",
        "type": "t_mapping(t_uint256,t_address)"
      },
      {
        "astId": 176,
        "contract": "contracts/TokenMonster.sol:TokenMonster",
        "label": "_balances",
        "offset": 0,
        "slot": "3",
        "type": "t_mapping(t_address,t_uint256)"
      },
      {
        "astId": 180,
        "contract": "contracts/TokenMonster.sol:TokenMonster",
        "label": "_tokenApprovals",
        "offset": 0,
        "slot": "4",
        "type": "t_mapping(t_uint256,t_address)"
      },
      {
        "astId": 186,
        "contract": "contracts/TokenMonster.sol:TokenMonster",
        "label": "_operatorApprovals",
        "offset": 0,
        "slot": "5",
        "type": "t_mapping(t_address,t_mapping(t_address,t_bool))"
      },
      {
        "astId": 1247,
        "contract": "contracts/TokenMonster.sol:TokenMonster",
        "label": "_tokenURIs",
        "offset": 0,
        "slot": "6",
        "type": "t_mapping(t_uint256,t_string_storage)"
      },
      {
        "astId": 7,
        "contract": "contracts/TokenMonster.sol:TokenMonster",
        "label": "_owner",
        "offset": 0,
        "slot": "7",
        "type": "t_address"
      },
      {
        "astId": 3081,
        "contract": "contracts/TokenMonster.sol:TokenMonster",
        "label": "_nextTokenId",
        "offset": 0,
        "slot": "8",
        "type": "t_uint256"
      },
      {
        "astId": 3083,
        "contract": "contracts/TokenMonster.sol:TokenMonster",
        "label": "_category",
        "offset": 0,
        "slot": "9",
        "type": "t_uint256"
      },
      {
        "astId": 3085,
        "contract": "contracts/TokenMonster.sol:TokenMonster",
        "label": "_baseUri",
        "offset": 0,
        "slot": "10",
        "type": "t_string_storage"
      },
      {
        "astId": 3087,
        "contract": "contracts/TokenMonster.sol:TokenMonster",
        "label": "freeMintEndTime",
        "offset": 0,
        "slot": "11",
        "type": "t_uint256"
      }
    ],
    "types": {
      "t_address": {
        "encoding": "inplace",
        "label": "address",
        "numberOfBytes": "20"
      },
      "t_bool": {
        "encoding": "inplace",
        "label": "bool",
        "numberOfBytes": "1"
      },
      "t_mapping(t_address,t_bool)": {
        "encoding": "mapping",
        "key": "t_address",
        "label": "mapping(address => bool)",
        "numberOfBytes": "32",
        "value": "t_bool"
      },
      "t_mapping(t_address,t_mapping(t_address,t_bool))": {
        "encoding": "mapping",
        "key": "t_address",
        "label": "mapping(address => mapping(address => bool))",
        "numberOfBytes": "32",
        "value": "t_mapping(t_address,t_bool)"
      },
      "t_mapping(t_address,t_uint256)": {
        "encoding": "mapping",
        "key": "t_address",
        "label": "mapping(address => uint256)",
        "numberOfBytes": "32",
        "value": "t_uint256"
      },
      "t_mapping(t_uint256,t_address)": {
        "encoding": "mapping",
        "key": "t_uint256",
        "label": "mapping(uint256 => address)",
        "numberOfBytes": "32",
        "value": "t_address"
      },
      "t_mapping(t_uint256,t_string_storage)": {
        "encoding": "mapping",
        "key": "t_uint256",
        "label": "mapping(uint256 => string)",
        "numberOfBytes": "32",
        "value": "t_string_storage"
      },
      "t_string_storage": {
        "encoding": "bytes",
        "label": "string",
        "numberOfBytes": "32"
      },
      "t_uint256": {
        "encoding": "inplace",
        "label": "uint256",
        "numberOfBytes": "32"
      }
    }
  }
}