{
  "_format": "hh-sol-artifact-1",
  "contractName": "TokenMonster",
  "sourceName": "contracts/TokenMonster.sol",
  "abi": [
    {
      "inputs": [
        {
          "internalType": "string",
          "name": "baseUri",
          "type": "string"
        },
        {
          "internalType": "uint256",
          "name": "category",
          "type": "uint256"
        },
        {
          "internalType": "uint256",
          "name": "freeMintDuration",
          "type": "uint256"
        }
      ],
      "stateMutability": "nonpayable",
      "type": "constructor"
    },
    {
      "inputs": [],
      "name": "AlreadyMinted",
      "type": "error"
    },
    {
      "inputs": [],
      "name": "CannotMintDuringFreeMintPeriod",
      "type": "error"
    },
    {
      "inputs": [],
      "name": "EthSentDuringFreeMint",
      "type": "error"
    },
    {
      "inputs": [
        {
          "internalType": "uint256",
          "name": "required",
          "type": "uint256"
        }
      ],
      "name": "InsufficientEthForSaleMint",
      "type": "error"
    },
    {
      "inputs": [],
      "name": "NoTokenOwned",
      "type": "error"
    },
    {
      "anonymous": false,
      "inputs": [
        {
          "indexed": true,
          "internalType": "address",
          "name": "owner",
          "type": "address"
        },
        {
          "indexed": true,
          "internalType": "address",
          "name": "approved",
          "type": "address"
        },
        {
          "indexed": true,
          "internalType": "uint256",
          "name": "tokenId",
          "type": "uint256"
        }
      ],
      "name": "Approval",
      "type": "event"
    },
    {
      "anonymous": false,
      "inputs": [
        {
          "indexed": true,
          "internalType": "address",
          "name": "owner",
          "type": "address"
        },
        {
          "indexed": true,
          "internalType": "address",
          "name": "operator",
          "type": "address"
        },
        {
          "indexed": false,
          "internalType": "bool",
          "name": "approved",
          "type": "bool"
        }
      ],
      "name": "ApprovalForAll",
      "type": "event"
    },
    {
      "anonymous": false,
      "inputs": [
        {
          "indexed": false,
          "internalType": "uint256",
          "name": "_fromTokenId",
          "type": "uint256"
        },
        {
          "indexed": false,
          "internalType": "uint256",
          "name": "_toTokenId",
          "type": "uint256"
        }
      ],
      "name": "BatchMetadataUpdate",
      "type": "event"
    },
    {
      "anonymous": false,
      "inputs": [
        {
          "indexed": false,
          "internalType": "uint256",
          "name": "_tokenId",
          "type": "uint256"
        }
      ],
      "name": "MetadataUpdate",
      "type": "event"
    },
    {
      "anonymous": false,
      "inputs": [
        {
          "indexed": true,
          "internalType": "address",
          "name": "previousOwner",
          "type": "address"
        },
        {
          "indexed": true,
          "internalType": "address",
          "name": "newOwner",
          "type": "address"
        }
      ],
      "name": "OwnershipTransferred",
      "type": "event"
    },
    {
      "anonymous": false,
      "inputs": [
        {
          "indexed": true,
          "internalType": "address",
          "name": "from",
          "type": "address"
        },
        {
          "indexed": true,
          "internalType": "address",
          "name": "to",
          "type": "address"
        },
        {
          "indexed": true,
          "internalType": "uint256",
          "name": "tokenId",
          "type": "uint256"
        }
      ],
      "name": "Transfer",
      "type": "event"
    },
    {
      "inputs": [
        {
          "internalType": "address",
          "name": "to",
          "type": "address"
        },
        {
          "internalType": "uint256",
          "name": "tokenId",
          "type": "uint256"
        }
      ],
      "name": "approve",
      "outputs": [],
      "stateMutability": "nonpayable",
      "type": "function"
    },
    {
      "inputs": [
        {
          "internalType": "address",
          "name": "owner",
          "type": "address"
        }
      ],
      "name": "balanceOf",
      "outputs": [
        {
          "internalType": "uint256",
          "name": "",
          "type": "uint256"
        }
      ],
      "stateMutability": "view",
      "type": "function"
    },
    {
      "inputs": [
        {
          "internalType": "uint256",
          "name": "tokenId",
          "type": "uint256"
        }
      ],
      "name": "burn",
      "outputs": [],
      "stateMutability": "nonpayable",
      "type": "function"
    },
    {
      "inputs": [],
      "name": "freeMintEndTime",
      "outputs": [
        {
          "internalType": "uint256",
          "name": "",
          "type": "uint256"
        }
      ],
      "stateMutability": "view",
      "type": "function"
    },
    {
      "inputs": [
        {
          "internalType": "uint256",
          "name": "tokenId",
          "type": "uint256"
        }
      ],
      "name": "getApproved",
      "outputs": [
        {
          "internalType": "address",
          "name": "",
          "type": "address"
        }
      ],
      "stateMutability": "view",
      "type": "function"
    },
    {
      "inputs": [
        {
          "internalType": "address",
          "name": "owner",
          "type": "address"
        }
      ],
      "name": "getOwnedToken",
      "outputs": [
        {
          "internalType": "uint256",
          "name": "",
          "type": "uint256"
        }
      ],
      "stateMutability": "view",
      "type": "function"
    },
    {
      "inputs": [
        {
          "internalType": "address",
          "name": "owner",
          "type": "address"
        },
        {
          "internalType": "address",
          "name": "operator",
          "type": "address"
        }
      ],
      "name": "isApprovedForAll",
      "outputs": [
        {
          "internalType": "bool",
          "name": "",
          "type": "bool"
        }
      ],
      "stateMutability": "view",
      "type": "function"
    },
    {
      "inputs": [],
      "name": "name",
      "outputs": [
        {
          "internalType": "string",
          "name": "",
          "type": "string"
        }
      ],
      "stateMutability": "view",
      "type": "function"
    },
    {
      "inputs": [],
      "name": "owner",
      "outputs": [
        {
          "internalType": "address",
          "name": "",
          "type": "address"
        }
      ],
      "stateMutability": "view",
      "type": "function"
    },
    {
      "inputs": [
        {
          "internalType": "uint256",
          "name": "tokenId",
          "type": "uint256"
        }
      ],
      "name": "ownerOf",
      "outputs": [
        {
          "internalType": "address",
          "name": "",
          "type": "address"
        }
      ],
      "stateMutability": "view",
      "type": "function"
    },
    {
      "inputs": [],
      "name": "renounceOwnership",
      "outputs": [],
      "stateMutability": "nonpayable",
      "type": "function"
    },
    {
      "inputs": [],
      "name": "safeMint",
      "outputs": [],
      "stateMutability": "payable",
      "type": "function"
    },
    {
      "inputs": [
        {
          "internalType": "address",
          "name": "from",
          "type": "address"
        },
        {
          "internalType": "address",
          "name": "to",
          "type": "address"
        },
        {
          "internalType": "uint256",
          "name": "tokenId",
          "type": "uint256"
        }
      ],
      "name": "safeTransferFrom",
      "outputs": [],
      "stateMutability": "nonpayable",
      "type": "function"
    },
    {
      "inputs": [
        {
          "internalType": "address",
          "name": "from",
          "type": "address"
        },
        {
          "internalType": "address",
          "name": "to",
          "type": "address"
        },
        {
          "internalType": "uint256",
          "name": "tokenId",
          "type": "uint256"
        },
        {
          "internalType": "bytes",
          "name": "data",
          "type": "bytes"
        }
      ],
      "name": "safeTransferFrom",
      "outputs": [],
      "stateMutability": "nonpayable",
      "type": "function"
    },
    {
      "inputs": [
        {
          "internalType": "address",
          "name": "operator",
          "type": "address"
        },
        {
          "internalType": "bool",
          "name": "approved",
          "type": "bool"
        }
      ],
      "name": "setApprovalForAll",
      "outputs": [],
      "stateMutability": "nonpayable",
      "type": "function"
    },
    {
      "inputs": [
        {
          "internalType": "string",
          "name": "baseUri",
          "type": "string"
        }
      ],
      "name": "setBaseUri",
      "outputs": [],
      "stateMutability": "nonpayable",
      "type": "function"
    },
    {
      "inputs": [
        {
          "internalType": "bytes4",
          "name": "interfaceId",
          "type": "bytes4"
        }
      ],
      "name": "supportsInterface",
      "outputs": [
        {
          "internalType": "bool",
          "name": "",
          "type": "bool"
        }
      ],
      "stateMutability": "view",
      "type": "function"
    },
    {
      "inputs": [],
      "name": "symbol",
      "outputs": [
        {
          "internalType": "string",
          "name": "",
          "type": "string"
        }
      ],
      "stateMutability": "view",
      "type": "function"
    },
    {
      "inputs": [
        {
          "internalType": "uint256",
          "name": "tokenId",
          "type": "uint256"
        }
      ],
      "name": "tokenURI",
      "outputs": [
        {
          "internalType": "string",
          "name": "",
          "type": "string"
        }
      ],
      "stateMutability": "view",
      "type": "function"
    },
    {
      "inputs": [],
      "name": "totalSupply",
      "outputs": [
        {
          "internalType": "uint256",
          "name": "",
          "type": "uint256"
        }
      ],
      "stateMutability": "view",
      "type": "function"
    },
    {
      "inputs": [
        {
          "internalType": "address",
          "name": "from",
          "type": "address"
        },
        {
          "internalType": "address",
          "name": "to",
          "type": "address"
        },
        {
          "internalType": "uint256",
          "name": "tokenId",
          "type": "uint256"
        }
      ],
      "name": "transferFrom",
      "outputs": [],
      "stateMutability": "nonpayable",
      "type": "function"
    },
    {
      "inputs": [
        {
          "internalType": "address",
          "name": "newOwner",
          "type": "address"
        }
      ],
      "name": "transferOwnership",
      "outputs": [],
      "stateMutability": "nonpayable",
      "type": "function"
    }
  ],
  "bytecode": "0x60806040523480156200001157600080fd5b50604051620024013803806200240183398101604081905262000034916200014b565b6040518060400160405280600c81526020016b2a37b5b2b726b7b739ba32b960a11b81525060405180604001604052806003815260200162544b4d60e81b8152508160009081620000869190620002c3565b506001620000958282620002c3565b505050620000b2620000ac620000df60201b60201c565b620000e3565b600a620000c08482620002c3565b506009829055620000d281426200038f565b600b5550620003b7915050565b3390565b600780546001600160a01b038381166001600160a01b0319831681179093556040519116919082907f8be0079c531659141344cd1fd0a4f28419497f9722a3daafe3b4186f6b6457e090600090a35050565b634e487b7160e01b600052604160045260246000fd5b6000806000606084860312156200016157600080fd5b83516001600160401b03808211156200017957600080fd5b818601915086601f8301126200018e57600080fd5b815181811115620001a357620001a362000135565b604051601f8201601f19908116603f01168101908382118183101715620001ce57620001ce62000135565b81604052828152602093508984848701011115620001eb57600080fd5b600091505b828210156200020f5784820184015181830185015290830190620001f0565b600092810184019290925250908601516040909601519097959650949350505050565b600181811c908216806200024757607f821691505b6020821081036200026857634e487b7160e01b600052602260045260246000fd5b50919050565b601f821115620002be576000816000526020600020601f850160051c81016020861015620002995750805b601f850160051c820191505b81811015620002ba57828155600101620002a5565b5050505b505050565b81516001600160401b03811115620002df57620002df62000135565b620002f781620002f0845462000232565b846200026e565b602080601f8311600181146200032f5760008415620003165750858301515b600019600386901b1c1916600185901b178555620002ba565b600085815260208120601f198616915b8281101562000360578886015182559484019460019091019084016200033f565b50858210156200037f5787850151600019600388901b60f8161c191681555b5050505050600190811b01905550565b80820180821115620003b157634e487b7160e01b600052601160045260246000fd5b92915050565b61203a80620003c76000396000f3fe6080604052600436106101355760003560e01c80636871ee40116100ab578063a0bcfc7f1161006f578063a0bcfc7f14610330578063a22cb46514610350578063b88d4fde14610370578063c87b56dd14610390578063e985e9c5146103b0578063f2fde38b146103d057600080fd5b80636871ee40146102c057806370a08231146102c8578063715018a6146102e85780638da5cb5b146102fd57806395d89b411461031b57600080fd5b806323b872dd116100fd57806323b872dd1461020a57806342842e0e1461022a57806342966c681461024a5780634a90604c1461026a5780636352211e14610280578063650de98b146102a057600080fd5b806301ffc9a71461013a57806306fdde031461016f578063081812fc14610191578063095ea7b3146101c957806318160ddd146101eb575b600080fd5b34801561014657600080fd5b5061015a610155366004611806565b6103f0565b60405190151581526020015b60405180910390f35b34801561017b57600080fd5b50610184610401565b6040516101669190611873565b34801561019d57600080fd5b506101b16101ac366004611886565b610493565b6040516001600160a01b039091168152602001610166565b3480156101d557600080fd5b506101e96101e43660046118bb565b6104ba565b005b3480156101f757600080fd5b506008545b604051908152602001610166565b34801561021657600080fd5b506101e96102253660046118e5565b6105d4565b34801561023657600080fd5b506101e96102453660046118e5565b610606565b34801561025657600080fd5b506101e9610265366004611886565b610621565b34801561027657600080fd5b506101fc600b5481565b34801561028c57600080fd5b506101b161029b366004611886565b610652565b3480156102ac57600080fd5b506101fc6102bb366004611921565b6106b2565b6101e96106f9565b3480156102d457600080fd5b506101fc6102e3366004611921565b61086b565b3480156102f457600080fd5b506101e96108f1565b34801561030957600080fd5b506007546001600160a01b03166101b1565b34801561032757600080fd5b50610184610905565b34801561033c57600080fd5b506101e961034b3660046119c8565b610914565b34801561035c57600080fd5b506101e961036b366004611a11565b61092c565b34801561037c57600080fd5b506101e961038b366004611a4d565b610937565b34801561039c57600080fd5b506101846103ab366004611886565b61096f565b3480156103bc57600080fd5b5061015a6103cb366004611ac9565b61097a565b3480156103dc57600080fd5b506101e96103eb366004611921565b6109a8565b60006103fb82610a1e565b92915050565b60606000805461041090611afc565b80601f016020809104026020016040519081016040528092919081815260200182805461043c90611afc565b80156104895780601f1061045e57610100808354040283529160200191610489565b820191906000526020600020905b81548152906001019060200180831161046c57829003601f168201915b5050505050905090565b600061049e82610a43565b506000908152600460205260409020546001600160a01b031690565b60006104c582610652565b9050806001600160a01b0316836001600160a01b0316036105375760405162461bcd60e51b815260206004820152602160248201527f4552433732313a20617070726f76616c20746f2063757272656e74206f776e656044820152603960f91b60648201526084015b60405180910390fd5b336001600160a01b03821614806105535750610553813361097a565b6105c55760405162461bcd60e51b815260206004820152603d60248201527f4552433732313a20617070726f76652063616c6c6572206973206e6f7420746f60448201527f6b656e206f776e6572206f7220617070726f76656420666f7220616c6c000000606482015260840161052e565b6105cf8383610aa2565b505050565b6105df335b82610b10565b6105fb5760405162461bcd60e51b815260040161052e90611b36565b6105cf838383610b6f565b6105cf83838360405180602001604052806000815250610937565b61062a336105d9565b6106465760405162461bcd60e51b815260040161052e90611b36565b61064f81610cd3565b50565b6000818152600260205260408120546001600160a01b0316806103fb5760405162461bcd60e51b8152602060048201526018602482015277115490cdcc8c4e881a5b9d985b1a59081d1bdad95b88125160421b604482015260640161052e565b60006106bd3361086b565b6000036106dd5760405163cc4e74b560e01b815260040160405180910390fd5b506001600160a01b03166000908152600c602052604090205490565b600b544211158015610713575060006107113361086b565b115b15610731576040516303e6d65b60e01b815260040160405180910390fd5b336000908152600c60205260409020541561075f57604051631bbdf5c560e31b815260040160405180910390fd5b600b54421161078c573415610787576040516306f3ec0960e01b815260040160405180910390fd5b6107ba565b662386f26fc10000348111156107b857604051637423232160e01b81526004810182905260240161052e565b505b60088054600091826107cb83611b99565b9190505590506000600954826107e19190611bc8565b905060006108226107f184610ce5565b600a6107fc85610ce5565b60405160200161080e93929190611bf8565b604051602081830303815290604052610d78565b6040516020016108329190611d11565b604051602081830303815290604052905061084d3384610ed8565b6108578382610ef2565b5050336000908152600c6020526040902055565b60006001600160a01b0382166108d55760405162461bcd60e51b815260206004820152602960248201527f4552433732313a2061646472657373207a65726f206973206e6f7420612076616044820152683634b21037bbb732b960b91b606482015260840161052e565b506001600160a01b031660009081526003602052604090205490565b6108f9610fbd565b6109036000611017565b565b60606001805461041090611afc565b61091c610fbd565b600a6109288282611da6565b5050565b610928338383611069565b6109413383610b10565b61095d5760405162461bcd60e51b815260040161052e90611b36565b61096984848484611137565b50505050565b60606103fb8261116a565b6001600160a01b03918216600090815260056020908152604080832093909416825291909152205460ff1690565b6109b0610fbd565b6001600160a01b038116610a155760405162461bcd60e51b815260206004820152602660248201527f4f776e61626c653a206e6577206f776e657220697320746865207a65726f206160448201526564647265737360d01b606482015260840161052e565b61064f81611017565b60006001600160e01b03198216632483248360e11b14806103fb57506103fb82611272565b6000818152600260205260409020546001600160a01b031661064f5760405162461bcd60e51b8152602060048201526018602482015277115490cdcc8c4e881a5b9d985b1a59081d1bdad95b88125160421b604482015260640161052e565b600081815260046020526040902080546001600160a01b0319166001600160a01b0384169081179091558190610ad782610652565b6001600160a01b03167f8c5be1e5ebec7d5bd14f71427d1e84f3dd0314c0f7b2291e5b200ac8c7c3b92560405160405180910390a45050565b600080610b1c83610652565b9050806001600160a01b0316846001600160a01b03161480610b435750610b43818561097a565b80610b675750836001600160a01b0316610b5c84610493565b6001600160a01b0316145b949350505050565b826001600160a01b0316610b8282610652565b6001600160a01b031614610ba85760405162461bcd60e51b815260040161052e90611e66565b6001600160a01b038216610c0a5760405162461bcd60e51b8152602060048201526024808201527f4552433732313a207472616e7366657220746f20746865207a65726f206164646044820152637265737360e01b606482015260840161052e565b826001600160a01b0316610c1d82610652565b6001600160a01b031614610c435760405162461bcd60e51b815260040161052e90611e66565b600081815260046020908152604080832080546001600160a01b03199081169091556001600160a01b0387811680865260038552838620805460001901905590871680865283862080546001019055868652600290945282852080549092168417909155905184937fddf252ad1be2c89b69c2b068fc378daa952ba7f163c4a11628f55a4df523b3ef91a4505050565b610cdc816112c2565b61064f816112c2565b60606000610cf283611302565b600101905060008167ffffffffffffffff811115610d1257610d1261193c565b6040519080825280601f01601f191660200182016040528015610d3c576020820181803683370190505b5090508181016020015b600019016f181899199a1a9b1b9c1cb0b131b232b360811b600a86061a8153600a8504945084610d4657509392505050565b60608151600003610d9757505060408051602081019091526000815290565b6000604051806060016040528060408152602001611fc56040913990506000600384516002610dc69190611eab565b610dd09190611ebe565b610ddb906004611ed2565b67ffffffffffffffff811115610df357610df361193c565b6040519080825280601f01601f191660200182016040528015610e1d576020820181803683370190505b50905060018201602082018586518701602081018051600082525b82841015610e93576003840193508351603f8160121c168701518653600186019550603f81600c1c168701518653600186019550603f8160061c168701518653600186019550603f8116870151865350600185019450610e38565b9052505085516003900660018114610eb25760028114610ec557610ecd565b603d6001830353603d6002830353610ecd565b603d60018303535b509195945050505050565b6109288282604051806020016040528060008152506113da565b6000828152600260205260409020546001600160a01b0316610f6d5760405162461bcd60e51b815260206004820152602e60248201527f45524337323155524953746f726167653a2055524920736574206f66206e6f6e60448201526d32bc34b9ba32b73a103a37b5b2b760911b606482015260840161052e565b6000828152600660205260409020610f858282611da6565b506040518281527ff8e1a15aba9398e019f0b49df1a4fde98ee17ae345cb5f6b5e2c27f5033e8ce79060200160405180910390a15050565b6007546001600160a01b031633146109035760405162461bcd60e51b815260206004820181905260248201527f4f776e61626c653a2063616c6c6572206973206e6f7420746865206f776e6572604482015260640161052e565b600780546001600160a01b038381166001600160a01b0319831681179093556040519116919082907f8be0079c531659141344cd1fd0a4f28419497f9722a3daafe3b4186f6b6457e090600090a35050565b816001600160a01b0316836001600160a01b0316036110ca5760405162461bcd60e51b815260206004820152601960248201527f4552433732313a20617070726f766520746f2063616c6c657200000000000000604482015260640161052e565b6001600160a01b03838116600081815260056020908152604080832094871680845294825291829020805460ff191686151590811790915591519182527f17307eab39ab6107e8899845ad3d59bd9653f200f220920489ca2b5937696c31910160405180910390a3505050565b611142848484610b6f565b61114e8484848461140d565b6109695760405162461bcd60e51b815260040161052e90611ee9565b606061117582610a43565b6000828152600660205260408120805461118e90611afc565b80601f01602080910402602001604051908101604052809291908181526020018280546111ba90611afc565b80156112075780601f106111dc57610100808354040283529160200191611207565b820191906000526020600020905b8154815290600101906020018083116111ea57829003601f168201915b50505050509050600061122560408051602081019091526000815290565b90508051600003611237575092915050565b815115611269578082604051602001611251929190611f3b565b60405160208183030381529060405292505050919050565b610b678461150e565b60006001600160e01b031982166380ac58cd60e01b14806112a357506001600160e01b03198216635b5e139f60e01b145b806103fb57506301ffc9a760e01b6001600160e01b03198316146103fb565b6112cb81611582565b600081815260066020526040902080546112e490611afc565b15905061064f57600081815260066020526040812061064f916117a2565b60008072184f03e93ff9f4daa797ed6e38ed64bf6a1f0160401b83106113415772184f03e93ff9f4daa797ed6e38ed64bf6a1f0160401b830492506040015b6d04ee2d6d415b85acef8100000000831061136d576d04ee2d6d415b85acef8100000000830492506020015b662386f26fc10000831061138b57662386f26fc10000830492506010015b6305f5e10083106113a3576305f5e100830492506008015b61271083106113b757612710830492506004015b606483106113c9576064830492506002015b600a83106103fb5760010192915050565b6113e48383611617565b6113f1600084848461140d565b6105cf5760405162461bcd60e51b815260040161052e90611ee9565b60006001600160a01b0384163b1561150357604051630a85bd0160e11b81526001600160a01b0385169063150b7a0290611451903390899088908890600401611f6a565b6020604051808303816000875af192505050801561148c575060408051601f3d908101601f1916820190925261148991810190611fa7565b60015b6114e9573d8080156114ba576040519150601f19603f3d011682016040523d82523d6000602084013e6114bf565b606091505b5080516000036114e15760405162461bcd60e51b815260040161052e90611ee9565b805181602001fd5b6001600160e01b031916630a85bd0160e11b149050610b67565b506001949350505050565b606061151982610a43565b600061153060408051602081019091526000815290565b90506000815111611550576040518060200160405280600081525061157b565b8061155a84610ce5565b60405160200161156b929190611f3b565b6040516020818303038152906040525b9392505050565b600061158d82610652565b905061159882610652565b600083815260046020908152604080832080546001600160a01b03199081169091556001600160a01b0385168085526003845282852080546000190190558785526002909352818420805490911690555192935084927fddf252ad1be2c89b69c2b068fc378daa952ba7f163c4a11628f55a4df523b3ef908390a45050565b6001600160a01b03821661166d5760405162461bcd60e51b815260206004820181905260248201527f4552433732313a206d696e7420746f20746865207a65726f2061646472657373604482015260640161052e565b6000818152600260205260409020546001600160a01b0316156116d25760405162461bcd60e51b815260206004820152601c60248201527f4552433732313a20746f6b656e20616c7265616479206d696e74656400000000604482015260640161052e565b6000818152600260205260409020546001600160a01b0316156117375760405162461bcd60e51b815260206004820152601c60248201527f4552433732313a20746f6b656e20616c7265616479206d696e74656400000000604482015260640161052e565b6001600160a01b038216600081815260036020908152604080832080546001019055848352600290915280822080546001600160a01b0319168417905551839291907fddf252ad1be2c89b69c2b068fc378daa952ba7f163c4a11628f55a4df523b3ef908290a45050565b5080546117ae90611afc565b6000825580601f106117be575050565b601f01602090049060005260206000209081019061064f91905b808211156117ec57600081556001016117d8565b5090565b6001600160e01b03198116811461064f57600080fd5b60006020828403121561181857600080fd5b813561157b816117f0565b60005b8381101561183e578181015183820152602001611826565b50506000910152565b6000815180845261185f816020860160208601611823565b601f01601f19169290920160200192915050565b60208152600061157b6020830184611847565b60006020828403121561189857600080fd5b5035919050565b80356001600160a01b03811681146118b657600080fd5b919050565b600080604083850312156118ce57600080fd5b6118d78361189f565b946020939093013593505050565b6000806000606084860312156118fa57600080fd5b6119038461189f565b92506119116020850161189f565b9150604084013590509250925092565b60006020828403121561193357600080fd5b61157b8261189f565b634e487b7160e01b600052604160045260246000fd5b600067ffffffffffffffff8084111561196d5761196d61193c565b604051601f8501601f19908116603f011681019082821181831017156119955761199561193c565b816040528093508581528686860111156119ae57600080fd5b858560208301376000602087830101525050509392505050565b6000602082840312156119da57600080fd5b813567ffffffffffffffff8111156119f157600080fd5b8201601f81018413611a0257600080fd5b610b6784823560208401611952565b60008060408385031215611a2457600080fd5b611a2d8361189f565b915060208301358015158114611a4257600080fd5b809150509250929050565b60008060008060808587031215611a6357600080fd5b611a6c8561189f565b9350611a7a6020860161189f565b925060408501359150606085013567ffffffffffffffff811115611a9d57600080fd5b8501601f81018713611aae57600080fd5b611abd87823560208401611952565b91505092959194509250565b60008060408385031215611adc57600080fd5b611ae58361189f565b9150611af36020840161189f565b90509250929050565b600181811c90821680611b1057607f821691505b602082108103611b3057634e487b7160e01b600052602260045260246000fd5b50919050565b6020808252602d908201527f4552433732313a2063616c6c6572206973206e6f7420746f6b656e206f776e6560408201526c1c881bdc88185c1c1c9bdd9959609a1b606082015260800190565b634e487b7160e01b600052601160045260246000fd5b600060018201611bab57611bab611b83565b5060010190565b634e487b7160e01b600052601260045260246000fd5b600082611bd757611bd7611bb2565b500690565b60008151611bee818560208601611823565b9290920192915050565b717b226e616d65223a20224661726d6f6e202360701b815283516000906020611c278260128601838a01611823565b7f222c20226465736372697074696f6e223a20224661726d6f6e204e4654222c20601292850192830152691134b6b0b3b2911d101160b11b60328301528554603c90600090611c7581611afc565b60018281168015611c8d5760018114611ca857611cda565b60ff198416603c890152603c83151584028901019450611cda565b8b600052602060002060005b84811015611ccf5781548a8201890152908301908801611cb4565b5050603c8389010194505b50505050611d04611ceb8289611bdc565b6c5f6661726d6f6e2e706e67227d60981b8152600d0190565b9998505050505050505050565b7f646174613a6170706c69636174696f6e2f6a736f6e3b6261736536342c000000815260008251611d4981601d850160208701611823565b91909101601d0192915050565b601f8211156105cf576000816000526020600020601f850160051c81016020861015611d7f5750805b601f850160051c820191505b81811015611d9e57828155600101611d8b565b505050505050565b815167ffffffffffffffff811115611dc057611dc061193c565b611dd481611dce8454611afc565b84611d56565b602080601f831160018114611e095760008415611df15750858301515b600019600386901b1c1916600185901b178555611d9e565b600085815260208120601f198616915b82811015611e3857888601518255948401946001909101908401611e19565b5085821015611e565787850151600019600388901b60f8161c191681555b5050505050600190811b01905550565b60208082526025908201527f4552433732313a207472616e736665722066726f6d20696e636f72726563742060408201526437bbb732b960d91b606082015260800190565b808201808211156103fb576103fb611b83565b600082611ecd57611ecd611bb2565b500490565b80820281158282048414176103fb576103fb611b83565b60208082526032908201527f4552433732313a207472616e7366657220746f206e6f6e20455243373231526560408201527131b2b4bb32b91034b6b83632b6b2b73a32b960711b606082015260800190565b60008351611f4d818460208801611823565b835190830190611f61818360208801611823565b01949350505050565b6001600160a01b0385811682528416602082015260408101839052608060608201819052600090611f9d90830184611847565b9695505050505050565b600060208284031215611fb957600080fd5b815161157b816117f056fe4142434445464748494a4b4c4d4e4f505152535455565758595a6162636465666768696a6b6c6d6e6f707172737475767778797a303132333435363738392b2fa26469706673582212208220a36e726fe02acfdb323bbd6a62ac87fc04cad7c7bc6273ba21127ffa79c364736f6c63430008170033",
  "linkReferences": {},
  "deployedLinkReferences": {}
}